:020000001028C6
:10000800FE00030EF5000408F6000A08F700831244
:1000180003137F08F8003F2A1128793084007D30C7
:10002800E1228313203084003A30E122D822C9002B
:10003800D922CA00DA22CB00DB22CC00DC22CD0098
:10004800DD22CE00DE22CF00DF22D000E022D10068
:1000580083012E28B521D42883120313B701003059
:10006800B522003A03193A28033051280130B52245
:10007800003A03194128043051280030A622003ADA
:1000880003194B2883120313B901B90ACD2801308B
:10009800A622003A03195428023083120313602859
:1000A8000230B522003A0319CD280A30831203130F
:1000B800C7004708D6000530C7004708B900CD2853
:1000C8000030B522003A0319CD28831203133708EC
:1000D800C700C8014708D2004808D3005208C70023
:1000E8004708BA0036086222CA280130B522003A09
:1000F8000319CD28831203133708C700C80147081E
:10010800D4004808D5005408C7004708BA00510869
:100118006222CA2885153708C700C8014808530253
:10012800031D982847085202031CB9010030C6284D
:1001380085153708C700C80148085502031DA628B9
:1001480047085402031CB9010130C62838080319AE
:10015800C228851DB8281030C3002730C4007C226F
:10016800831203138511C2280130D602D030C30090
:100178000730C4007C22831203138515560803191F
:10018800B9010230B522003A0319CD2883120313AE
:10019800B901033083120313BA000030BB00F32106
:1001A8008312031339088400063004020318CC288C
:1001B80002308A00F13004078200CD28F3010330B1
:1001C8007302031808007308263E8400831300088E
:1001D800F0007308293E84007008800073084C3EC4
:1001E80084000008831203130505F0007308263EF7
:1001F8008400700880007308293E84000008F0001D
:100208007308263E840000087006031D55297308EC
:10021800263E84000008F0007308493E84007008F8
:1002280080007308493E84000008031D3D297308B7
:10023800F0007007203E84000008F100840A0008DE
:10024800F20000307202C83003197102031837290E
:100258007308F0007007203E840001308007840A8C
:100268000318800A552973082F3E84008001800AEC
:1002780055297308F0007007203E84000008F1003B
:1002880073082C3E8400710880007308F000700722
:10029800203E84008001840A800173082F3E840078
:1002A80080010130F0007008F307E328831203137C
:1002B800C001BB1F6629BA09BB09BA0A0319BB0AE0
:1002C800C001C00ABD1F7129BC09BD09BC0A0319B8
:1002D800BD0A0130BE003E08C006C101C2013A088D
:1002E8003B040319A829BF01BF0ABB1B872901309A
:1002F8000310BA0DBB0DFF3E031D7C290130BE0063
:100308003E08BF07792901300310C10DC20DFF3E19
:10031800031D88293B083D02031D94293A083C0225
:10032800031C9D293A08BC023B08031CBD03BD02FF
:10033800411401300310BB0CBA0CFF3E031D9E296B
:100348000130BF02031D872940080319B029C109DC
:10035800C209C10A0319C20A4208BB004108BA000F
:1003680008000730831203139F00831603138113B9
:1003780001170B1634308500FF30831203138500F4
:1003880001308600FF308600B7010A30C5004508F5
:10039800D600B9013608CE2283120313C500C60160
:1003A8004508D2004608D3005108CE228312031311
:1003B800C500C6014508D4004608D5000030C4224F
:1003C800103083120313BA002730BB001C22E83018
:1003D80083120313C3000330C4007C220800831275
:1003E8000313BC01BD013B083D02031DFD293A086A
:1003F8003C0203180800BE01BF0100303F028D30E7
:1004080003193E020318152A0130BE070318BF0A54
:100418000030BF0700303F028D3003193E02031C35
:10042800082A0130BC070318BD0A0030BD07F729A8
:100438008312031310103A09BC003B09BD00BC0A23
:100448000319BD0A3C08FF3EB4003D080318013EED
:10045800FF3EB50035088F0034088E00901010124A
:1004680090120C10831603130C148B170B1783129E
:100478000313101408000C1C4C2A831603130C1CBD
:100488004C2AF722831203130C10E9229122E2204E
:100498008B1C552A8B100130F40074088312031347
:1004A800B707780883120313FF0077088A007608D5
:1004B8008400750E8300FE0E7E0E0900831203135E
:1004C800BB003B08831603139B00831203133A08EF
:1004D800831603139A001C158B1355309D00AA3000
:1004E8009D009C148B1783128C1F772A8C1308008D
:1004F8000A3083120313BA000030BB004408BD0061
:100508004308BC005A21831203133B08D0003A0861
:10051800CF00B201B301B801080001308312031300
:10052800B2070318B30A0030B30750083302031D9B
:100538009F2A4F083202031C0800B201B301B80118
:10054800B80A080083120313BA0003303A02031CE6
:10055800AF2AFF3008003A082F3E840083130008B2
:10056800080083120313BA0003303A02031CBE2AA0
:10057800003008003A082C3E840083130008080065
:1005880083120313BA003A08031DCC2A8511080008
:100598008515080083120313BA003A08831603135B
:1005A8009B001C141A08080001340134013410346B
:1005B8002034043401340034013464008001840A96
:1005C8000406031900340406E22A831203133508CB
:1005D8008F0034088E001014080030286428792809
:0E05E8008E289C28AA288312031310100800E6
:08400000FF3FFF3FFF3FFF3FC0
:02400E0018FF99
:00000001FF
